:020000040800F2
:10000000D020002049010008210F0008190F000826
:100010001D0F00087B0C0008EB1700080000000013
:10002000000000000000000000000000F9100008BF
:10003000B10D000800000000A90F0008851200089B
:100040006301000863010008630100086301000800
:1000500063010008630100086301000863010008F0
:1000600063010008630100086301000863010008E0
:1000700063010008630100086301000863010008D0
:1000800063010008630100086301000863010008C0
:1000900063010008630100086301000863010008B0
:1000A00063010008630100086301000863010008A0
:1000B00063010008630100082513000863010008BC
:1000C0006301000863010008630100086301000880
:1000D00063010008191500086301000863010008A6
:1000E0006301000863010008630100086301000860
:1000F0006301000863010008630100086301000850
:10010000630100086301000863010008630100083F
:10011000630100086301000863010008630100082F
:10012000630100086301000863010008630100081F
:10013000DFF810D000F0E0FB00480047C12B0008BA
:10014000AFF30080D02000200648804706480047D3
:10015000FEE7FEE7FEE7FEE7FEE7FEE7FEE7FEE777
:10016000FEE7FEE7C512000831010008F0B480EA9E
:100170000102D40F4200B2EB410F02D20246084600
:1001800011464A0042D0C30DDDB2C1F3C752AD1AC9
:10019000202D35DAC1F3160141F4000204B15242B8
:1001A000C5F1200602FA06F12A411044B3EBD05FF4
:1001B00023D0C4B1012DA0EBC35009DCF0BC4FF03B
:1001C000004202EAC352DBB200F5000000F0E0B9E1
:1001D000400000F1807000EBC350A0F1807040EA55
:1001E000D170490009E0490841EAC071A0EBC35051
:1001F00000F50000400800EBC350F0BC00F0BFB9B0
:100200006142012202EB4101001BF6E7F0BC70479E
:1002100081F00041AAE780F00040A7E780EA0102F0
:1002200010B502F00043400022D04A001FD0010E5A
:1002300001EB1261C0F35600C2F3560240F4000015
:1002400042F40002A0FB022000047F39140400D015
:10025000401C50EA124001D44000491EC2B20C06B4
:1002600004EBD010401C4008802A02D003E000209C
:1002700010BD20F00100002900DA0020184310BD55
:100280002DE9FE4F81EA030404F0004421F000410F
:1002900000944FF0000B23F0004350EA01045ED0BD
:1002A00052EA03045BD0C3F30A54C1F30A552C4449
:1002B000A4F2F3340194A0FB0254C1F3130141F4FE
:1002C0008011C3F3130343F4801301FB024400FBCA
:1002D000034E840A970A44EA815447EA8357A4FBF1
:1002E000076802958D0A05FB07854FEA932C04FBEE
:1002F0000C542705029D4FEA065847EA1637B5EB1E
:1003000008056EEB070C870E920E47EA811742EA4A
:100310008312A7FB0201B6EB0B0164EB00042B0D6B
:1003200043EA0C335E1844EB1C50DA465146E7FBB7
:100330000201C5F313044FEA0B3343EA14534FEAA7
:100340000432019C43EA0603A4F10C040294009CCD
:10035000CDE900B400F059F903B0BDE8F08F0020FA
:100360000146F9E72DE9F04D81EA030404F0004B62
:1003700021F0004514464FF0000A23F0004150EAF6
:10038000050220D054EA01021DD0C5F30A570246E7
:10039000C5F31303C1F31300C1F30A5640F48015EB
:1003A00043F48013A7EB0608101BD64608F2FD386D
:1003B00073EB050002D308F1010801E092185B41DC
:1003C000B8F1000F03DA00200146BDE8F08D0020EF
:1003D0004FF48011064684460EE0171B73EB0507A9
:1003E00005D3121B63EB050306434CEA010C4908D5
:1003F0004FEA300092185B4150EA0107EDD152EA12
:10040000030012D082EA040083EA0501084305D004
:10041000101BAB4106D20122002306E000224FF060
:10042000004302E06FF0010253101AEB06004CEBA0
:10043000085110EB0A0041EB0B01BDE8F04D00F054
:10044000D5B80EB5C10F80EAE0700844CA07002194
:1004500040F233438DE80E000A460B4600F0D5F813
:1004600003B000BD0EB540F2334102910021CDE949
:1004700000110A460B4600F0C8F803B000BD00F0BA
:10048000004230F000400AD0C10D01F56071C0F3A8
:10049000160042EA0151C20840071143704700208C
:1004A0000146704701F0004330B421F0004150EAAA
:1004B000010206D00A0DA2F56072C1F31301002AF1
:1004C00002DC30BC00207047440F44EAC104C10084
:1004D000E01830BC00EBC25000F051B8002801DB3E
:1004E000C0F10040002901DBC1F1004188427047A2
:1004F00030B50B46014600202022012409E021FAF4
:1005000002F59D4205D303FA02F5491B04FA02F5F0
:100510002844151EA2F10102F1DC30BD2DE9F05F87
:100520000546002092469B46884606468146402462
:100530001BE0284641464746224600F0FEF9534656
:100540005A46C01A914110D311461846224600F06F
:10055000E5F92D1A67EB01084F46224601200021DC
:1005600000F0DCF917EB00094E41201EA4F1010454
:10057000DFDC484631462A464346BDE8F09F002965
:10058000A8BF7047401C490008BF20F00100704719
:1005900010B4B0FA80FC00FA0CF050EA010404BF79
:1005A00010BC704749B1CCF1200421FA04F411FACF
:1005B0000CF118BF012121430843A3EB0C01CB1D13
:1005C0004FEA00614FEA102042BF002010BC704784
:1005D00000EBC35010440029A4BF10BC7047401C5E
:1005E000490008BF20F0010010BC704710B5141E70
:1005F00073F1000408DA401C41F1000192185B41DC
:100600001A4301D120F0010010BD2DE9F04D9246B2
:100610009B4611B1B1FA81F202E0B0FA80F22032C9
:10062000904600F07BF904460F4640EA0A0041EA92
:100630000B0153465A46084313D0114653EA0100B2
:1006400019D0C8F14002504600F077F905460E4631
:1006500050465946424600F061F9084305D0012052
:1006600004E020463946BDE8F08D0020054346EA07
:10067000E0762C4337430A986305E40AA0EB0800B0
:100680000022FD0A44EA47540A3002D50020014600
:10069000E9E7010510196941DDE9084500196941DB
:1006A000BDE8F04DA2E72DE9FE4F804681EA030048
:1006B000C00F0C46009021F0004123F00045B8EB3C
:1006C0000200A94105D24046214690461C460B46F1
:1006D000024623F00040104347D0270DC7F30A001D
:1006E000C3F30A510290401A019040286BDAC3F319
:1006F000130040F4801B0098924620B10023D2EBF7
:10070000030A63EB0B0B01985946C0F140025046B7
:1007100000F004F906460D4650465946019A00F08D
:100720001CF910EB08006141002487EA115284EAA9
:10073000E7731A4340D0009A62B3019A012A4FEA44
:10074000075215DC001B61EB02014FF0004202EA88
:100750000752CDE90042001C41F5801132462B467C
:10076000FFF753FF03B0BDE8F08F40462146F9E79D
:10077000001B61EB0201001C41F5801300185B4176
:100780002018A2F5001747EB030140EAD570B6190F
:100790006D4111E06D084FEA360645EAC0754FEA33
:1007A0000752001B61EB0201001C41F58011490852
:1007B0004FEA30000019514132462B4603B0BDE8E4
:1007C000F04FFFF713BF0098012240000023D0EB49
:1007D000020263EBE073009821464FEAE074B8EB45
:1007E000000061EB0401E9E783F000435BE781F07F
:1007F000004158E72DE9F04D00231A461B1A8A41A3
:1008000003DB00200146BDE8F08DC1F30A52C1F3BD
:10081000130141F480154FF0000BD10702D10018ED
:100820006D41521E0027044640F2FF11384601EB8D
:10083000620A3E468046024600204FF4801100F0D6
:100840007CF8C2197141BB1846EB0100B4EB030CF4
:1008500075EB000C04D3E41A65EB000517460E4651
:10086000241908F101006D4180463428E3DDF919AF
:1008700046EB0600091BA84103D24FF0FF32134696
:1008800001E0002213461BEB070046EB0A51BDE8CE
:10089000F04DFFF7ABBEC1F30A52C1F3130140F2B2
:1008A000FF3341F480119A4202DA0020014670477A
:1008B00040F233439A42A2F2334202DC524200F049
:1008C0003CB800F02BB8000030B5041E71F10004F4
:1008D00004DB4FF00044404264EB0101141E73F14D
:1008E000000405DB1C464FF00043524263EB040357
:1008F000994208BF904230BD064C074D06E0E068C3
:1009000040F0010394E8070098471034AC42F6D356
:10091000FFF712FC0032000820320008202A04DB16
:10092000203A00FA02F1002070479140C2F1200302
:1009300020FA03F3194390407047202A04DB203A41
:1009400021FA02F00021704721FA02F3D040C2F1EF
:1009500020029140084319467047202A06DBCB1736
:10096000203A41FA02F043EAE07306E041FA02F36A
:10097000D040C2F12002914008431946704770B53B
:1009800021F0004303430CD0C1F30A550024D5EBFA
:10099000040564EB0403D617AD1AB34102DB002053
:1009A000014670BD201841EB025170BD70B5C1F316
:1009B0000A5201F000450024C1F3130140F2FF3355
:1009C00041F480119A4201DA002070BD40F23343B5
:1009D0009A42A2F2334203DC5242FFF7AEFF00E03C
:1009E00090402C43F1D0404270BD70B58C1810F887
:1009F000015B15F0070301D110F8013B2A1106D164
:100A000010F8012B03E010F8016B01F8016B5B1E7D
:100A1000F9D12B0705D40023521E0DD401F8013B58
:100A2000FAE710F8013BCB1A921C03E013F8015BC4
:100A300001F8015B521EF9D5A142D8D3002070BD48
:100A400021B1826842F00102826003E0826822F0F4
:100A5000010282607047014600208A6802F00402A9
:100A60000AB1012000E0002070470146C86C80B246
:100A700070470246002013680B400BB1012000E0D4
:100A800000207047014600208A6802F008020AB17F
:100A9000012000E00020704730B50246002000230E
:100AA00050680F4C20400D790C6844EA052420431F
:100AB000506090680B4C2040D1E902542C434D7992
:100AC00044EA450420439060D06A20F470000C7C16
:100AD000641EE4B2234340EA0350D06230BD0000FC
:100AE000FFFEF0FFFDF7F1FFF0B504460D460020D4
:100AF0000021092D11DDE068A5F10A0606EB460785
:100B0000072606FA07F18843A5F10A0606EB460612
:100B100003FA06F10843E0600CE0206905EB4507A5
:100B2000072606FA07F1884305EB450603FA06F1A6
:100B300008432061072A0FDA606B561E06EB860712
:100B40001F2606FA07F18843561E06EB860605FAAD
:100B500006F10843606322E00D2A0FDA206BD61FEE
:100B600006EB86071F2606FA07F18843D61F06EB19
:100B7000860605FA06F10843206310E0E06AA2F158
:100B80000D0606EB86071F2606FA07F18843A2F139
:100B90000D0606EB860605FA06F10843E062F0BD95
:100BA000816841F008018160704721B1826842F498
:100BB000A002826003E0826822F4A0028260704793
:100BC000816841F0040181607047000000B587B082
:100BD00001214FF4017000F015FA4FF4004000F0CD
:100BE000E5F90220ADF8180000208DF81B00032065
:100BF0008DF81A0006A9184800F0DBF800200190D3
:100C00008DF808008DF809004FF460200390002053
:100C1000049001208DF8140001A91048FFF73CFF53
:100C200001210E48FFF70CFF0C48FFF7B9FF00BF8A
:100C30000A48FFF727FF0028FAD10848FFF7C0FF4E
:100C400000BF0648FFF707FF0028FAD1012103483B
:100C5000FFF7ABFF07B000BD0008014000240140D2
:100C600001460878C0004A7840EA82008A7840EA63
:100C70004200CA781043C0B2704700BFFEE70000D0
:100C800008B50121042000F0BDF93C20ADF80000BA
:100C900010208DF8030003208DF8020069460248F9
:100CA00000F087F808BD00000008014000F0805106
:100CB00011B10349086001E0024948607047000033
:100CC000040402400000024021B1026842F0010227
:100CD000026004E002684FF6FE731A40026070473B
:100CE00001460020002201F0805313B1054B1A6821
:100CF00001E0054B1A6802EA01030BB1012000E094
:100D000000207047000402400000024010B500229D
:100D1000026847F6F0739A430C6A8B6823430C69A8
:100D200023434C6923438C692343CC6923434C6A96
:100D300023438C6A23431A430260CB6843600B68E9
:100D400083604B68C36010BD4160704770B5044656
:100D50000D4600212046FFF7B7FF29462046FFF742
:100D6000F3FF01212046FFF7AFFF70BDF0B58BB058
:100D700007460C4615461E460121084600F022F99A
:100D8000009401951020029003960020049080208A
:100D9000059000200690079008904FF4805009902D
:100DA00000200A9069463846FFF7B0FF0BB0F0BD4F
:100DB00070472DE9F041024600250026002000235F
:100DC0000024002791F803C00CF00F0591F803C030
:100DD0000CF0100CBCF1000F03D091F802C04CEAEB
:100DE000050591F800C0BCF1000F31D01468002057
:100DF0002BE04FF0010C0CFA00F3B1F800C00CEA44
:100E000003069E4220D183004FF00F0C0CFA03F72B
:100E1000BC4305FA03FC4CEA040491F803C0BCF19E
:100E2000280F06D14FF0010C0CFA00FCC2F814C0D8
:100E30000AE091F803C0BCF1480F05D14FF0010C56
:100E40000CFA00FCC2F810C0401C0828D1D3146072
:100E5000B1F800C0BCF1FF0F34DD546800202EE073
:100E600000F1080C4FF0010808FA0CF3B1F800C0CB
:100E70000CEA03069E4221D183004FF00F0C0CFABE
:100E800003F7BC4305FA03FC4CEA040491F803C0E1
:100E9000BCF1280F05D100F1080C08FA0CF8C2F8D3
:100EA000148091F803C0BCF1480F07D100F1080C81
:100EB0004FF0010808FA0CF8C2F81080401C08280E
:100EC000CED35460BDE8F0812DE9F04105460C46D3
:100ED000002601231A4629460E48FFF705FE002783
:100EE00010E001210B48FFF760FE00BF0221094816
:100EF000FFF7BFFD0028F9D00648FFF7B6FD06440E
:100F0000781CC7B2A742ECDBB6FBF4F080B2BDE8B8
:100F1000F08100000024014000BFFEE700BFFEE7B3
:100F20007047000070B5002100230F22C47804B37D
:100F3000154C246804F4E064C4F5E064210AC1F1AE
:100F40000403CA40447804FA03F18478144021432E
:100F500009010E4C0678A155047804F01F05012400
:100F6000AC4005786D11AD0005F1E025C5F80041F4
:100F700009E0047804F01F050124AC40044D067814
:100F8000761145F8264070BD0CED00E000E400E06D
:100F900080E100E002490143024A1160704700000D
:100FA0000000FA050CED00E070470000014600204B
:100FB000034A506820F440400843506070470000E6
:100FC0000010024029B1064A52690243044B5A619B
:100FD00004E0034A52698243014B5A6170470000A2
:100FE0000010024029B1064AD2690243044BDA617B
:100FF00004E0034AD2698243014BDA617047000082
:101000000010024029B1064A92690243044B9A61DA
:1010100004E0034A92698243014B9A6170470000E1
:101020000010024030B500210022002400232D4D85
:101030006D6805F00C0121B1042905D0082923D1E0
:1010400005E0294D056022E0274D05601FE0254D94
:101050006D6805F47012234D6D6805F48034022527
:1010600005EB92421CB9214D554305600BE01D4D27
:101070006D6805F400351DB11C4D5543056002E057
:10108000194D5543056002E0174D056000BF00BFD4
:10109000144D6D6805F0F0010909154D6B5C05688C
:1010A000DD4045600F4D6D6805F4E061090A104DA3
:1010B0006B5C4568DD4085600A4D6D6805F46051E4
:1010C000C90A0B4D6B5C4568DD40C560054D6D6818
:1010D00005F44041890B074D6B5CC568B5FBF3F522
:1010E000056130BD0010024000127A0000093D0089
:1010F0002A0400203A0400207047000010B504467E
:101100000823224613491448FFF730FE01228021AC
:101110001048001F00F08FFA08210F48FFF716FE55
:1011200015E04FF40050FFF7DBFD20B14FF4005005
:10113000FFF7BCFD0CE00948006808B9012000E099
:101140000020064908604FF4967001F05BFBE8E769
:1011500000BF10BD04380140440002408401214218
:10116000002104E035220270401C4A1C91B208297B
:10117000F8DB704710B500F001F810BD0CB5002089
:10118000019000903348006840F480303149086095
:1011900000BF3048006800F4003000900198401C07
:1011A0000190009818B90198B0F5A06FF1D12948C5
:1011B000006800F4003010B10120009001E0002030
:1011C00000900098012843D12348006840F01000A7
:1011D000214908600846006820F0030008600846BE
:1011E000006840F0020008601A48406819494860E9
:1011F0000846406848600846406840F4806048609F
:101200000846406820F47C1048600846406840F476
:10121000E81048600846006840F08070086000BF31
:101220000C48006800F000700028F9D009484068B8
:1012300020F00300074948600846406840F002007B
:10124000486000BF0348406800F00C000828F9D14E
:101250000CBD00000010024000200240042808D10C
:101260004FF0E021096941F004014FF0E0221161E3
:1012700007E04FF0E021096921F004014FF0E0227E
:10128000116170477047000010B504466FF004000C
:10129000FFF7E4FFE11704EB5171C1F3C701074AFF
:1012A00011701046007800EB4001C1EBC0104FF602
:1012B000FF7101EAC0000249088010BD3E04002011
:1012C0004004002010B51348006840F001001149A7
:1012D000086008464068104908400E4948600846C2
:1012E00000680E4908400B4908600846006820F471
:1012F000802008600846406820F4FE0048604FF4F3
:101300001F008860FFF736FF4FF000600449086057
:1013100010BD0000001002400000FFF8FFFFF6FEC5
:1013200008ED00E010B50121134800F070F8F0B1AD
:1013300012480068012811D11148006880280DDA90
:1013400001210846FFF7C0FD0E490D4A126821F839
:1013500012000B480068401C0949086008480068F2
:10136000802804D100200649086004490860012152
:10137000014800F03DF810BD0008004008000020C2
:1013800004000020CC0400207FB505460C46012156
:101390000420FFF727FEADF80850ADF80440002008
:1013A000ADF80A00ADF8060001A9104800F04AF8AF
:1013B000012211460D4800F03BF801210B4800F0D6
:1013C00017F81E208DF8000002208DF80100032080
:1013D0008DF8020001208DF803006846FFF7A2FD9A
:1013E0000121024800F007F87FBD0000000800401E
:1013F000CA430282704721B1028842F00102028092
:1014000004E002884FF6FE731A400280704730B540
:101410000246002000230024158A05EA010395896D
:1014200005EA010413B10CB1012000E0002030BD39
:101430001AB183890B43838102E083898B438381C3
:1014400070470000002202881D4B98420ED01D4BB1
:1014500098420BD0B0F1804F08D01B4B984205D07A
:101460001A4B984202D01A4B984204D14FF68F7310
:101470001A404B881A43174B984207D0164B984294
:1014800004D04FF6FF431A40CB881A4302808B8862
:1014900083850B8803850A4B98420BD0094B9842F1
:1014A00008D00E4B984205D00D4B984202D00D4B00
:1014B000984201D10B7A0386012383827047000092
:1014C000002C0140003401400004004000080040AE
:1014D000000C00400010004000140040004001409B
:1014E00000440140004801400146087800074A785E
:1014F00040EA02608A7840EA0250CA7840EA024034
:101500000A7940EA02304A7940EA02208A7940EAC0
:101510000210CA791043704710B540F225510C48AB
:1015200000F09FF870B10A4800F056F9C4B22146A5
:10153000074800F056F900BF4021054800F084F844
:101540000128F9D14021024800F060F810BD0000E8
:101550000038014010B586B0044601210420FFF791
:1015600051FD01218803FFF74DFD01210846FFF7DA
:1015700049FD4FF40070ADF8140003208DF81600FB
:1015800018208DF8170005A91E48FFF712FC4FF42C
:101590008060ADF8140004208DF8170005A91948E3
:1015A000FFF707FC01940020ADF80800ADF80A0031
:1015B000ADF80C00ADF810000C20ADF80E0001A93C
:1015C000114800F09DF801210F4800F028F8402153
:1015D0000D4800F01BF8012240F225510A4800F0A6
:1015E0006AF825208DF8000003208DF801008DF8A1
:1015F000020001208DF803006846FFF793FC06B057
:1016000010BD0000000801400038014001F40072E4
:10161000B2F5007F00D100BFCA430280704721B1FC
:10162000828942F40052828104E082894DF6FF7380
:101630001A40828170471AB1838A0B43838202E089
:10164000838A8B438382704702460020B1F5007F76
:1016500000D100BF13880B400BB1012000E0002037
:10166000704770B50246002400230025002040F694
:101670006A16B14200D100BFC1F3421501F01F0349
:10168000012606FA03F3012D02D19689334006E0C4
:10169000022D02D1168A334001E0968A33400C12A3
:1016A000012606FA04F41688344013B10CB1012067
:1016B00000E0002070BDF0B50346002400260025A0
:1016C000002040F66A17B94200D100BF1846C1F3A6
:1016D000421401F01F06012707FA06F5012C01D17B
:1016E0000C3004E0022C01D1103000E014301AB1AB
:1016F00007682F43076002E00768AF430760F0BD4B
:101700002DE9F04786B005460E460024A24600BFEC
:10171000A1460027B08900B100BF2F462C8A4CF6A5
:10172000FF700440F08804432C82AC894EF6F3101D
:101730000440B08831890843718908430443AC816F
:10174000AC8A4FF6FF400440B0890443AC8201A844
:10175000FFF768FC1F48874202D1DDF810A001E0C6
:10176000DDF80CA0A88900F4004040B10AEBCA00E3
:1017700000EB0A1031684900B0FBF1F807E00AEB12
:10178000CA0000EB0A1031688900B0FBF1F8642050
:10179000B8FBF0F004012009642101FB1089A8893D
:1017A00000F4004040B1322000EBC900B0FBF1F082
:1017B00000F00700044308E0322000EB0910642128
:1017C000B0FBF1F000F00F0004432C8106B0BDE83F
:1017D000F08700000038014001468888C0F3080007
:1017E0007047C1F308028280704700BFFEE7000027
:1017F0000FB4054B10B503A9044A029800F014FC7D
:1018000010BC5DF814FB00005128000844040020BF
:10181000490050EAC12018BF04204A0D18BF40F00B
:10182000010040F2FF72B2EB515F08BF40F00200CE
:10183000012808BF052070472DE9F74F144694B0E2
:101840000021C4E902111599079121F00045C94909
:101850008D4206DC1599C4E9000117B00020BDE8EF
:10186000F08FC549DFF814A3A9423CDD0799C44EA7
:101870000029C44FC44A1599534619DDFEF7B4FF39
:10188000554506D0C14AC24BFEF7AEFFC4E9000180
:101890000AE04FF0D352BE4BFEF7A6FF32463B465E
:1018A000FEF7A2FFC4E9000117B00120BDE8F08FE8
:1018B000FEF7F9FE554506D0B44AB54BFEF7F3FEE8
:1018C000C4E900010AE04FF0D352B14BFEF7EBFE42
:1018D00032463B46FEF7E7FEC4E9000117B04FF081
:1018E000FF30BDE8F08FAB49A942159978DB21F0B4
:1018F000004183468846A84AA84BFEF7C1FC002257
:10190000A74BFEF7D0FEFFF751F80990FEF799FDBF
:1019100006460F469C4A5346FEF7B2FC43465A46DB
:10192000FEF765FF80468A46984A994B304639460D
:10193000FEF7A6FC2A0D01250B9242465346FEF700
:1019400056FF032DC4E9000139D00B98C1F30A51A9
:10195000401A05EB45111139814230DA9148C346EE
:10196000784400EB0510CDF80CA00C90D0E90023D2
:1019700030463946FEF784FC02460B460491069039
:1019800058460399FEF730FF80468A4602460B46CA
:1019900058460399FEF728FF049B069AFEF724FF9A
:1019A00083460C9803913946D0E902233046FEF76E
:1019B00067FC5A46039BFEF717FF6D1CBDE70798AF
:1019C0000028A2BF099817B0BDE8F08F616881F0C8
:1019D00000416160099817B04042BDE8F08FFFE711
:1019E00084461598C1F31301C0F30A50A0F2F530F4
:1019F0004FEA601800F01F06C6F120001390002087
:101A00000690079041F4801E05206D4676B1664A27
:101A100008EB00017A4452F8213002EB8101B34017
:101A20004A68139922FA01F1194305E05F4908EB6E
:101A30000002794451F82210A1FB0E27A1FB0C13E0
:101A40001A449A4234BF0123002303EB070A05EB33
:101A50008003D3E901B70F448F4234BF0121002135
:101A600093448B4411B1934502D903E0934501D2CD
:101A7000012100E00021C3E901B7514445F82010DD
:101A8000011EA0F10100C1DC0298059F00F1005089
:101A9000800F12900298DDE903568000FEF7D1FC1A
:101AA000834628460D91FEF7DDFC6FF01D02FEF720
:101AB00066FFCDE90E013046FEF7D4FC6FF03D0223
:101AC000FEF75DFF80468A463846FEF7CBFC6FF096
:101AD0005D02FEF754FF0746424653461191FEF75A
:101AE000E2FDDDE90E23FEF7DEFD5A460D9BFEF713
:101AF000DAFD00250E465A4628460D9BFEF774FE79
:101B0000DDE90E23FEF770FE42465346FEF76CFEFB
:101B10003A46119BFEF76BFEDFF898A0244A534625
:101B2000FEF7AEFB07468846234A244B314628463B
:101B3000FEF7A6FB3A464346FEF7B5FD0746884644
:101B40004FF0A842534631462846FEF799FB3A46E5
:101B50004346FEF7A8FD159A12F0004F04D0129AE2
:101B600081F0004152421292C4E90001129817B06C
:101B7000BDE8F08FFB21E93F7CD90240FB21F93F12
:101B80007370032E8A19A33B000040543163621A1C
:101B900061B4D03DFB21394183C8C96D305FE43F5A
:101BA0000000E03FAC170000281700000A170000F3
:101BB000182D4454FB21F93D3326A611460B113C48
:101BC0002DE9FF4D21F0004807460C46B8F1795F3A
:101BD00008DAFEF7EBFE002801BF0020324904B00E
:101BE000BDE8F08D3A46234610461946FEF748FBFD
:101BF000054602462D480E460B460621784400F065
:101C00005DF82A463346FEF73BFBDDE902238246B8
:101C10008B4638462146FEF733FB04460F465246B4
:101C20005B4628463146FEF72BFB22463B46FEF735
:101C3000DBFD07468A464FF0FF3228463146FEF765
:101C40009EFE1B4A90450ADA3A465346FEF7CCFD03
:101C500004B00022BDE8F04D134BFEF7C8BD154A95
:101C60004245A8BFA8F500154FF00004B8BF124DBB
:101C700022462B46FEF7B8FD0646884622462B46EE
:101C800000200949FEF7B0FD04460D463A4653468A
:101C900030464146FEF7A8FD04B022462B46BDE87B
:101CA000F04DFEF7A4BD00000000F03FE01400007E
:101CB0003333D33F0000E93F0000D23F2DE9F0412C
:101CC0004F1E00EBC7010446D1E9000115461E4630
:101CD00037F006020DD02A463346FEF7D1FA7F1EB2
:101CE00004EBC703D3E90023FEF7DDFC37F006025F
:101CF000F1D1022F25D0042F13D0062F18BFBDE835
:101D0000F0812A463346FEF7BBFAD4E90A23FEF7F0
:101D1000CAFC2A463346FEF7B3FAD4E90823FEF795
:101D2000C2FC2A463346FEF7ABFAD4E90623FEF797
:101D3000BAFC2A463346FEF7A3FAD4E90423FEF799
:101D4000B2FC2A463346FEF79BFAD4E90223FEF79B
:101D5000AAFC2A463346FEF793FAD4E90023BDE8ED
:101D6000F041FEF7A0BC00002DE9FF4D054621F033
:101D7000004084B00C46B0F1795F0BDA2846FFF7DB
:101D800047FD042808BF00F06FF8284608B0214638
:101D9000BDE8F08D2A460B461046FEF771FA06465E
:101DA0000F462A462346FEF76BFA804626488A46A7
:101DB00032463B4605217844FFF780FF8346109862
:101DC000029160B3214A224B40465146FEF758FA31
:101DD000CDE900015A4640465146029BFEF750FAB3
:101DE00082468846DDE906014FF0FF32FEF7C7FD67
:101DF00052464346FEF7F8FC32463B46FEF740FAB1
:101E0000DDE90623FEF7F0FCDDE90023FEF7ECFC3C
:101E100008B02A462346BDE8F04DFEF7E8BC0B4665
:101E20005A4630463946FEF72BFA084A084BFEF769
:101E30003AFC42465346FEF723FA08B02A462346A8
:101E4000BDE8F04DFEF72FBC1E1400004955555556
:101E50005555C5BF0122FEF792BD0022134610461C
:101E60001146FEF77FBA0000024A00201107FEF774
:101E700086BD000001FDFFFF02E008C8121F08C177
:101E8000002AFAD170477047002001E001C1121FFB
:101E9000002AFBD17047000001490860704700002C
:101EA000480400202DE9FF5F82B00021DDE9043005
:101EB000020DDDF840B0034318D044F61050A2F2F2
:101EC000FF3242431514119801281FD0A5EB0B00D7
:101ED000401C5FEA000A4FF000064E4FDFF83891D1
:101EE000B046504615D5CAF1000413E011980124FC
:101EF0004AA3012801D16FEA0B010298119AC0E9A7
:101F00000031C0E9024206B0BDE8F09FCBF100000D
:101F1000DFE704460021404A491842EB0450CDE96E
:101F2000001012E0E00707D032463B4640464946E3
:101F3000FEF7A6F98046894632463B4610461946CA
:101F4000FEF79EF906460F466410002CEAD1DDE943
:101F50000401DDE90023BAF1000F06DAFEF790F97B
:101F600042464B46FEF78CF905E0FEF7FBF9424688
:101F70004B46FEF7F7F904460E460022284BFEF7C3
:101F8000A3FC03D84FF0FF30014607E00022254BA9
:101F900020463146FEF787FBFEF77DFC102409E062
:101FA000002C0ADB0A220023FEF7B8FA039B30322A
:101FB0001A55641E50EA0102F2D1641C039AC4F15E
:101FC00011031444119A012A03D0012208430DD1B0
:101FD0000AE0084304D000204FF0110B119072E783
:101FE000A3EB0B056D1E0DE05B4504DD4FF0000219
:101FF00005F1010504E003DA4FF00002A5F1010547
:10200000002AECD002981199C0E90231C0E90045DC
:1020100079E70000000014400000F03F30000000AD
:102020000000F0430000E03F2DE9FF4F95B09A46D5
:10203000884606460025EEE1252877D1002427466C
:10204000F94A0121039400E0044316F8013F203BC4
:1020500001FA03F01042F7D130782A2811D06FF03E
:102060002F033078A0F13002092A16D8039A44F0E1
:10207000020402EB820203EB42021044761C03903E
:10208000EFE758F8042B0392002A03DA504244F495
:102090000054039044F00204761C30782E2816D1A8
:1020A00016F8010F44F004042A280DD06FF02F0217
:1020B0003078A0F13003092B09D807EB870302EB36
:1020C0004303C718761CF3E758F8047B761C307876
:1020D0006C280FD006DC4C2817D068280DD06A2851
:1020E00014D104E0742810D07A280FD10DE044F404
:1020F00000140AE044F4801401E044F440147278BF
:10210000824202D104F58014761C761C3078662851
:102110000BD013DC582877D009DC002875D045286F
:10212000F6D04628F4D047281AD193E118E0632866
:1021300035D0642879D0652812D18BE1702873D00E
:1021400008DC6728F1D069286FD06E280DD06F2881
:1021500006D1ACE073282CD0752874D0782853D0E1
:102160005246179990476D1C54E1C4F3025002285F
:1021700009D003280DD0D8F8001004280DD00D6028
:1021800008F1040846E1D8F80010EA17C1E9005246
:10219000F6E7D8F800100D80F2E70D70F0E718F8B8
:1021A000041B8DF8001000208DF80100EB46012083
:1021B00003E058F804BB4FF0FF3061074FF0000117
:1021C00002D40DE009F101018946B9420FDA8145D7
:1021D000F8DB1BF809100029F4D108E009F101012E
:1021E00089468142FADB1BF809100029F6D10398D1
:1021F0005346A0EB090721463846179A00F080FAAB
:10220000284400EB090507E044E008E10DE01BF875
:10221000010B524617999047B9F10109F7D253467D
:1022200021463846179AF2E039E00A21C4F30252F7
:102230004FF0000B0091022A06D058F8040BC1178A
:10224000032A09D00AE023E008F1070020F0070282
:10225000F2E80201904605E000B2C117042A01D15C
:1022600040B2C117002906DA0A460021404261EB5C
:1022700002012D2202E0220504D52B228DF8042034
:10228000012203E0E20701D02022F7E7914657E060
:102290000A2100E010214FF0000B00910BE010210B
:1022A0004FF0000B44F004040827009103E00820DD
:1022B0004FF0000B0090C4F30252022A05D058F8E8
:1022C000040B0021032A08D008E008F1070020F0E1
:1022D0000702F2E80201904603E080B2042A00D12E
:1022E000C0B24FF0000922072AD53278702A07D0F1
:1022F000DDF800C08CF0100C5CEA0B0C05D00EE091
:1023000040228DF80420012208E050EA010306D0A3
:1023100030238DF804308DF8052002229146009B71
:1023200083F0080353EA0B030AD150EA010201D1FA
:10233000620705D530228DF804204FF001097F1E79
:102340003278582A04D039A20C920CAA02920BE0DF
:102350003BA2F9E75B46009AFEF7E0F80C9B9B5C1A
:10236000029A521E0292137050EA0102F2D10298B0
:1023700004A9081A00F1200B600702D524F4803468
:1023800000E001275F4502DDA7EB0B0000E0002025
:1023900000EB0B01009003984944401A0390E003BE
:1023A00006D453462146179A039800F0A9F905442C
:1023B000002706E001A85246C05D179990476D1CA2
:1023C0007F1C4F45F6DBE0030CD553462146179A98
:1023D000039800F095F9054404E03020524617991F
:1023E00090476D1C0099481E00900029F5DC08E01C
:1023F0000298029952460078491C02911799904719
:102400006D1CBBF10001ABF1010BF1DC5BE100F0F5
:1024100065F90544761C307800287FF40DAE19B0BC
:102420002846BDE8F08F0000092801003031323322
:102430003435363738396162636465660000000000
:1024400030313233343536373839414243444546EA
:1024500000000000600700D4062708F1070020F004
:102460000700F0E80223804603F0004C5FEA0C000E
:1024700001D097A009E0200501D596A005E0E0076E
:1024800001D095A001E0AFF24C001390307823F01A
:10249000004365280CD006DC452809D046281DD00D
:1024A00047287FD13BE0662818D067287AD136E0EC
:1024B0000021112F01DB112000E0781CCDE9000183
:1024C00004A90CA8FFF7EEFCDDE90D010C9A4FF012
:1024D000000B07F10109109200914EE04FF000400F
:1024E0000097CDE9011004A90CA8FFF7DBFCDDE99A
:1024F0000D020C9B0F994FF0000B91461093009228
:1025000011B9791C00EB0109B7EB090003D4C0F144
:10251000FF3B07F10109A9EB0700019042E0012F01
:1025200000DA01270021112F01DD112000E03846DB
:10253000CDE9000104A90CA8FFF7B4FCDDE90D0109
:102540000C9A00914FF0000BB946109221070FD45E
:10255000009A4A4503DA914601E0A9F10109B9F16F
:10256000010F05DD109AA9F10101515C3029F4D069
:10257000B84202DA10F1040F03DA0121CDE90110AB
:1025800010E0002803DC8344A9EB000102E0411CB9
:10259000494500DD8946A0EB0B00401C01904FF03F
:1025A00000400290200705D40198484502DB4FF017
:1025B000FF30019000208DF84B0002980DF14B0781
:1025C000B0F1004F25D002200C902B200D900298E6
:1025D00000280CDA404202902D200D9007E00A21DD
:1025E0000298FDF785FF3031029007F8011D0C9924
:1025F000481E0C900029F2DC02980028EFD1791EC9
:102600000D980870307800F0200040F0450007F881
:10261000020D11A8C01BC01D02901398007800B1D4
:10262000012000EB0901019801EBE07102980144DF
:102630000398401A401E0390E00306D453462146F7
:10264000179A039800F05CF805441398007818B1C5
:102650005246179990476D1CE00323D553462146F7
:10266000179A039800F04CF805441BE0BBF1000FEB
:1026700007DB0098584504DD1098179910F80B00F7
:1026800001E0179930205246904701980BF1010B59
:10269000401E05F10105019004D12E2052461799E4
:1026A00090476D1CB9F10001A9F10109DEDC05E0DC
:1026B00017F8010B5246179990476D1C0299481E56
:1026C00002900029F4DC53462146179A03989EE6AF
:1026D0002D0000002B000000200000002DE9F0413B
:1026E000044600251E461746880404D405E03946F2
:1026F0002020B0476D1C641EF9D52846BDE8F08146
:102700002DE9F041044600251E469046C80301D538
:10271000302700E02027880404D505E041463846EC
:10272000B0476D1C641EF9D52846BDE8F081000055
:1027300010B50146022011E0821E51F8222032B964
:102740000022084C04EB8003C3F8802105E001223D
:10275000044C04EB8003C3F88021401C0628EBDB0B
:1027600010BD00000000214200B5244B21F00042C2
:1027700087B09A42DCBF0022134629DD204B9A42E3
:1027800008D140B94FF00100FFF786FBFFF765FB6A
:1027900007B000BD03DBFFF75DFB07B000BD02AA79
:1027A000FFF74AF810F0030104BF0DF1080C9CE894
:1027B0000F000DD0012001290ED0022914D00DF1F7
:1027C000080C00909CE80F00FFF7CEFA07B000BDA0
:1027D000FFF7F6F907B000BD0DF1080C00909CE87A
:1027E0000F00FFF7C1FA05E00DF1080C9CE80F009F
:1027F000FFF7E6F907B081F0004100BDFB21E93F9A
:102800000000F07F0146114A12884A434FF0E0234E
:102810005A6100229A611A46126942F001021A6155
:1028200000BF4FF0E022106900F001021AB100F47D
:102830008032002AF5D04FF0E022126922F0010226
:102840004FF0E0231A6100229A6170474004002093
:1028500070B504460D46E1B20548FEF7C2FF00BF61
:1028600080210348FEF7F0FE0028F9D0204670BD15
:10287000003801402DE9FF4F93B082468B46DDE9D9
:102880002089002422E011940020109000270EE0FF
:10289000119800EBD0714D100221119801FB150128
:1028A0000222109802FB0010109011957F1C1698C0
:1028B000401EB842ECDA10985AF8200048F824007C
:1028C00010985BF8200049F82400641C1598401EFD
:1028D000A042D8DA4FF07E50CAF800000020CBF8B2
:1028E00000001598FDF7ADFD0022B24BCDE90201C5
:1028F000FDF7C6FC02460B46CDE90401AE48AF49E0
:10290000FDF730FDCDE90601FDF7CCFD0E900E98E8
:10291000FDF7B5FDCDE90401FFF726FFCDE906017E
:10292000FDF7C0FDCAF804000E98FDF7A8FDCDE93B
:10293000040100F0BFFA81F00041CDE90601FDF786
:10294000B1FDCBF80400022733E07A1E5AF82200CA
:10295000DAF80410FDF762FC0E907A1E5BF8220094
:10296000DBF80410FDF75AFC0D90DBF80410DAF8E0
:102970000400FDF7FBFB7A1E07905BF822105AF863
:102980002200FDF7F3FB06900799FDF747FC0C903A
:10299000DDE90D10FDF73CFC4AF827000E990C9874
:1029A000FDF736FC07900D99FDF732FC4BF8270038
:1029B0007F1C1598401EB842C7DA002428E058F85A
:1029C00024000B9059F824000A90601C58F820103D
:1029D0000B98FDF7CBFB48F82400601C59F8201039
:1029E0000A98FDF7C3FB49F82400601C58F8201032
:1029F0000B98FDF70DFC611C48F82100601C59F88C
:102A000020100A98FDF704FC611C49F82100A41C61
:102A10001598801EA042D2DA159800EBD0714910AB
:102A2000119102261698801E0F9097E0119800EBE6
:102A3000D071491011917600002486E000257CE0D9
:102A400006EBD672631903EB6202079658F8221060
:102A5000119A6A435AF82200FDF7E0FB0E9006EB4C
:102A6000D672631903EB6202079659F82210119A85
:102A70006A435BF82200FDF7D1FB0D90119A6A437F
:102A80005BF82210119A6A435AF82200FDF76EFB98
:102A90000C9006EBD672631903EB6202079659F8A5
:102AA000221006EBD672631903EB6202069658F801
:102AB0002200FDF75BFB05900C99FDF7AFFB0C9036
:102AC000DDE90D10FDF7A4FB09900E990C98FDF7B8
:102AD0009FFB07900D99FDF79BFB0890611958F833
:102AE00021000999FDF794FB06EBD671621902EB00
:102AF0006101079648F82100611959F821000899E9
:102B0000FDF786FB06EBD671621902EB61010796B1
:102B100049F82100611958F821000999FDF726FBB1
:102B2000611948F82100611959F821000899FDF749
:102B30001DFB611949F821006D1C06EBD671491087
:102B4000491EA942BFF67CAF34441198401E704321
:102B5000A042BFF673AF0F98401E0F900F98002849
:102B6000BFF664AF00271EE059F8271059F8270078
:102B7000FDF754FB029058F8271058F82700FDF78E
:102B80004DFB01900299FDF7F1FA0390FDF777FCF8
:102B9000CDE9040100F0DEF9CDE90601FDF782FC84
:102BA0004AF827007F1C1598401EB842DCDA17B09F
:102BB000BDE8F08F0000F03F38E92F54FB211940A9
:102BC000ADF6380D4FF00009A84BD3E90020D3E94A
:102BD0000213CDF83438CDF828280DF62C0203C2A4
:102BE0004820FEF751FB4FF4A060FEF7D3F94FF4F5
:102BF0001650FEF7AFFCFEF743F8FDF7E7FF44F68B
:102C00001F6141F61F40FEF7BFFB01212320FEF7A5
:102C1000BBFB0823964A97499748FEF7A7F89448C4
:102C2000FEF79EFA21E10DF62800FFF781FD93489B
:102C300000680028F6D1002407E0914830F814100D
:102C400090A0FEF7D5FD601CC4B2802CF5DB8EA0F1
:102C5000FEF7CEFD0C218748001FFEF7C2FD00BF26
:102C600040218448001FFEF7EFFC0128F8D1002422
:102C7000DBE04FF000091BE0814901EB042131F852
:102C80001900FDF7EFFB07460022804BFDF7F8FA2D
:102C90000546FDF707FC0DF5C16141F8290000204C
:102CA0000DF5816141F8290009F1010000F0FF09EB
:102CB000B9F1800FE0DB02A882A907238022CDE9C9
:102CC00000100DF581610DF5C160FFF7D3FD4FF0E8
:102CD00000090CE00DF5C16050F829006C4901EBCA
:102CE000442141F8290009F1010000F0FF09B9F180
:102CF000800FEFDB4FF0000910E00DF5C16151F8D6
:102D00002900FDF7BCFB4A46CDE90001214661A040
:102D1000FEF76EFD09F1010000F0FF09B9F1800F27
:102D200008DA0DF5C16151F829004FF07E51FDF729
:102D3000D5FBE2D34FF0000972E0B9F1000F16D1D4
:102D4000534A02EB44221169514A02EB4422D068F3
:102D5000FDF70CFA05465249FDF7C0FB5CD2012095
:102D60000DF6080101EB840101F8090054E0B9F106
:102D7000010F16D1464A02EB4422D169444A02EBC4
:102D800044229069FDF7F2F905464549FDF7A6FB97
:102D900042D201200DF6080101EB840101F809007F
:102DA0003AE0B9F1020F1ED1394A02EB4422916A8E
:102DB000374A02EB4422506AFDF7D8F906463448F8
:102DC00000EB4420C16A3046FDF7D0F9054634498E
:102DD000FDF784FB20D201200DF6080101EB8401F0
:102DE00001F8090018E0B9F1030F15D1284A02EBE8
:102DF0004422916B264A02EB4422506BFDF7B6F950
:102E000005462749FDF76AFB06D201200DF60801A9
:102E100001EB840101F8090009F1010000F0FF094C
:102E2000B9F1040F89DB601CC4B2082CFFF621AF96
:102E3000002409E00DF6080101EB8400FDF710FF06
:102E400018490855601CC4B2082CF3DB1548FEF77E
:102E50004BFB154908600821124800F0A1F8114801
:102E6000FEF74CF911A0FEF7C3FCDCE6CC300008FD
:102E70000C000020043801404400024008000020FB
:102E8000CC040020202564000D0A00000000F03F63
:102E9000CC0C002025645F25645F25660D0A0000C8
:102EA0000060EA461C00002024000020212121218E
:102EB0000D0A000000B5254B21F0004287B09A4270
:102EC00003DC0022134600922BE0214B9A4208D1EA
:102ED00040B94FF00100FEF7DFFFFEF7BEFF07B07D
:102EE00000BD03DBFEF7B6FF07B000BD02AAFEF788
:102EF000A3FC10F003014FF001000DD0012914D004
:102F000002291AD00DF1080C9CE80F00FEF758FEBC
:102F100007B081F0004100BD0DF1080C00909CE865
:102F20000F00FEF721FF07B000BD0DF1080C9CE873
:102F30000F00FEF745FE07B000BD0DF1080C009034
:102F40009CE80F00FEF710FFE2E70000FB21E93FDD
:102F50000000F07F2DE9F04106460F46FDF74AFCE0
:102F6000041E0D4618BF0120284320F00040C0F188
:102F70007F6000F1E040C00F0ED0301C18BF012070
:102F8000384320F00040C0F17F6000F1E040C00F06
:102F900004BF0120FEF780FF20462946BDE8F081EE
:102FA000024600200EE0135C0A2B06DA135C002BAD
:102FB00003DB135C3033135402E0135C37331354D8
:102FC000431CD8B28842EEDB7047000000089C0921
:102FD000280B920CCC0DCA0E810FE80FFD0FBF0F0E
:102FE0002F0F540E360DE20B650ACF0831079B05F3
:102FF0001E04CA02AC01D1004100030018007F008A
:10300000360134026E03D804640600080000000094
:1030100000000000000000000000000000000000B0
:1030200000000000000000000000000000000000A0
:103030000000000000000000000000000000000090
:103040000000000000000000000000000000000080
:103050000000000000000000000000000000000070
:103060000000000000000000000000000000000060
:103070000000000000000000000000000000000050
:103080000000000000000000000000000000000040
:103090000000000000000000000000000000000030
:1030A0000000000000000000000000000000000020
:1030B0000000000000000000000000000000000010
:1030C00000000000000000000000000001000000FF
:1030D00000000000000000000000000000000000F0
:1030E0004C5555555555A53F7751C1166CC156BF26
:1030F0009015CB19A001FA3EAD529C804F7E92BE36
:10310000C4B1B4BD9EEE213ED43888BEE9FAA8BD54
:1031100000004054FB21F93F3163621A61B4D03D95
:103120000000601A61B4D03D7370032E8A19A33B6E
:103130000000002E8A19A33BC14920259A837B39C0
:1031400000000000000000006E83F9A22915444E23
:10315000D15727FCC0DD34F5999562DB4190433CA3
:10316000AB6351FE61C5BBDE3A6E24B7E0D24D427F
:10317000EA2E49061C92D1091CEB1DFE3EA729B17F
:10318000F53582E88444BB2E26709CE9417E5FB40D
:1031900039D69139F43953838B5F849C3B28F9BD30
:1031A000FF97F81F0F9805DE8B112FEF1F6D0A5A3E
:1031B000CF7E366DB709CB27663F464F2DEA5F9E1F
:1031C000C7BA27757BF1E5EBF739073DEA92528ADA
:1031D000B15FFB6B085D8D1FA6F810111111813FC7
:1031E000D561C119A0012ABF7DFEB157E31DC73EBD
:1031F000EB9C2B8AE6E55ABE7CD5CF5A3AD9E53D01
:1032000020320008000000204C040000EA090008F9
:10321000743400084C040020841C0000881E000840
:1032200081021F011920104002190232024B026470
:10323000027C029502AC02C402DB02F10207031C0D
:10324000033103450358036A037B038C039B03AAE2
:1032500003B703C403CF03D903E203EA03F103F680
:1032600003FA03FE03FF031B04FF081AFA101AF106
:10327000181AE2201ACF281AB7301A9B381A7B4046
:103280001A58481A31501C0703F15C1AC4641A9585
:103290006C1A64741A327C11101702E701CE01B562
:1032A000019C0184016B0154013C0125010F01F9CE
:1032B00012E412CF12BB12A8129612851274126574
:1032C00012561249123C12311227121E1216120FF8
:1032D000120A12063A02E01A01081A06101A0F180A
:1032E0001A1E201A31281A49301A65381A85401AD0
:1032F000A8481ACF5012F91A0F5C1A3C641A6B6C6A
:103300001A9C741CCE01E73D1A328C1A95981CF158
:10331000021CAA1A6AB61AAAC21AD9CE1AF6DA1169
:103320001B04FE081AEA101AC4181A8C201A45CC7D
:103330001AF1301A95381A32C01ACE4C1A6B581C32
:103340000F01E46A1A96761A56821A278E1A0A9A7A
:10335000211A02081A16101A3C181A74201ABB8C6B
:103360001A0F301A6B380A81CE801A4B4A1ADB7C4E
:103370001A585E1AB7681AF1761AFF741AE2721AAE
:103380009B701A316E1AAC6C1A196A1A84381AF9C1
:10339000421A854C1A315632061A06081A31101A8A
:1033A000851812F91A3C241CCE0119301AACD21A15
:1033B00031401A9B481AE2501AFF581AF1601AB7A6
:1033C000681A58C41ADB781A4BC01AB58A1A25BC79
:1033D0001AA89E1A49A81A0FB21A01B41A1EB21AD4
:1033E00065B01ACFAE1A54AC1EE70132027CF81059
:1033F0000F070345037B03AA03CF03EA03FA031B6A
:1034000004FA081ACF101A7B181C0703C4241C32B4
:1034100002E7301E54010F01CF401A65481A1E50B2
:1034200019EB195C1A27641A746C12E41A25781ABD
:10343000B5151A64541A1CA81AAA9C1AF6501AF642
:10344000081AAA101A1C4C1A64A01A9CF41AE44810
:103450001A563C320A1A0A081A56101AE4EC0AC024
:103460009C40312D0102030404E00906070809020B
:043470000406080046
:0400000508000131BD
:00000001FF
